:10000000405E0020B9670000B5670000B5670000DA
:1000100000000000000000000000000000000000E0
:10002000000000000000000000000000B5670000B4
:100030000000000000000000B5670000B567000088
:10004000B5670000B5670000F5530000554D00008E
:10005000B5670000B5670000B5670000B567000030
:10006000C1560000D1560000E1560000F1560000D4
:100070000157000011570000B5670000B567000088
:10008000B56700008963000099630000B567000050
:10009000B5670000A9630000054A0000B5670000CD
:1000A000B5670000B5670000CD4C0000B5670000E3
:1000B0000000000000000000000000000000000040
:1000C0000000000000000000000000000000000030
:1000D0000000000000000000000000000000000020
:1000E0000000000000000000000000000000000010
:1044000010B5064C2378002B07D1054B002B02D0AA
:10441000044800E000BF0123237010BD800000208D
:1044200000000000E86F0100084B10B5002B03D01E
:104430000749084800E000BF07480368002B00D187
:1044400010BD064B002BFBD09847F9E70000000099
:1044500084000020E86F0100E86F01000000000008
:1044600070B50020084B98470500084CFA218900D8
:10447000A047074B186007492800A047064B186063
:104480000522064B1A6070BDB9600000811D010055
:104490000000002040420F000400002010E000E077
:1044A00030B5084B1C68084A0025802149020138B4
:1044B00007D3002CFBD05460956013680B42FCD0EE
:1044C000F5E730BD0400002010E000E030B5084BF7
:1044D0001C68084A002580214902013807D3002CB6
:1044E000FBD05460956013680B42FCD0F5E730BDFB
:1044F0000000002010E000E00C4B1B68002B06D1F0
:10450000EFF31083002B07D00022094B1A70074AE3
:10451000136801331360704772B6BFF35F8F0022D8
:10452000044B1A700132024B1A70F0E79C00002015
:10453000A000002008000020084B1A68013A1A6009
:104540001B68002B09D1064B1B78002B05D00122DC
:10455000044B1A70BFF35F8F62B670479C00002057
:10456000A000002008000020F0B5C64600B582B0CB
:1045700001AC0125657000239846A37025702100C9
:104580001320124EB047124F80231B03BB612570CE
:1045900021001220B0478023DB02BB61257021007F
:1045A0000D20B04780239B017B61257021000920ED
:1045B000B04780239B007B614346237065702100D8
:1045C0001C20B04702B004BC9046F0BDFD50000076
:1045D000002800400020704710B50023002203701F
:1045E00043708370C370002103830362C361062498
:1045F0000471C0246401C480017242728272C2726A
:1046000002732A24025542738273C27303610275D6
:10461000063C0255C3840385417510BDF0B5CE46F6
:1046200000B598B005000C0016000800B24B984782
:104630002C60B24A136A08210B43136222780523C7
:10464000D20704D5180018B004BC9146F0BD2A6802
:10465000138C9BB2002BFBD122781C339207F1D430
:1046600073782B71002B04D1A54AD36904210B4325
:10467000D3610023AB60EB602B61AB76EB762B83D1
:104680002B7780009F4BC5502A23F35C002B05D16C
:10469000337B002B02D101336B7701E000236B7772
:1046A0002F6833786A46137069461E20964B9847E8
:1046B0001E20964B984734795822954902A8954B6D
:1046C0009847132C0BD9F4885822914902A8914B92
:1046D0009847132C11D900248E4B99461EE0A40054
:1046E00002ABE05801A900234B70CB708B700133F3
:1046F0000B70C0B2884B9847E5E7A40002ABE058C6
:1047000001A900234B70CB708B7001330B70C0B2CA
:10471000814B9847DFE70134142C18D00123A340C4
:1047200032691A42F7D05822794902A8C847132C97
:10473000F1D8A30002AA985801A900234B70CB70AE
:104740008B7001330B70C0B2734B9847E3E7737BF8
:104750009B01B27BD2011343DBB23B70337DDB01A3
:1047600072781343DBB2BB70F378342B00D940E18D
:104770009B006A4AD3589F460422102002211AE067
:10478000717A327A102016E006221020012112E000
:104790000822102000210EE00022302000210AE033
:1047A00000222020002106E000220020002102E05B
:1047B000022210200121090170230B4013433B7397
:1047C0002A68138C9BB2002BFBD1727D17333F2AD2
:1047D00000D937E7F37BDB011A43D2B27A732A6838
:1047E000138C9BB2002BFBD1B3787B702423F35C3A
:1047F000DB00327B92001A43F37A1343B27A520001
:10480000134303437B812A68138C9BB2002BFBD19B
:10481000328B002A20D0102800D1C9E000D883E0D4
:10482000202800D1A3E0302816D1F37A002B0AD03B
:10483000F16980311723FF2900D903E7316A8031FC
:10484000FF2900D9FEE61723F169FF2900DDF9E60B
:10485000316AFF2900DDF5E67B891A437A812A68EF
:10486000138C9BB2002BFBD1B38BFB812A68138C7A
:104870009BB2002BFBD1338C3B822A68138C9BB2FA
:10488000002BFBD13379F28813433B812A68138CC8
:104890009BB2002BFBD12A33F35CFB7007233B71E7
:1048A0001D33F35C002B1BD0F28C1D4917238A4269
:1048B00000D9C7E67A822A68138C9BB2002BFBD101
:1048C000318D80231B01CA18154892B217238242EA
:1048D00000D9B7E6B9822A68138C9BB2002BFBD1B2
:1048E000104B1B681A02E021C9000A409B065B0FAF
:1048F0001343BB850023A5E6D54500000004004016
:1049000000140040241E0020956100002561000075
:1049100058640100E34F01009162000084630100CC
:10492000FF0F000020608000002895D1F37A002B53
:1049300012D0F369802000018446634419002E4898
:104940001723814200D97DE6336A634419002A485F
:104950001723814200D975E627491723F069884259
:1049600000DD6FE6306A884200DD6BE674E7F37ABB
:10497000002B12D0F3698020800084466344190024
:104980001E481723814200D95CE6336A634419004C
:104990001A481723814200D954E618491723F069B1
:1049A000884200DD4EE6306A884200DD4AE653E781
:1049B000F37A002B12D0F36980200002844663440E
:1049C00019000F481723814200D93BE6336A63443C
:1049D00019000B481723814200D933E608491723F1
:1049E000F069884200DD2DE6306A884200DD29E664
:1049F00032E7172326E6C046FF0F0000FF03000042
:104A0000FFFF000070B52F4B1C6823689A795D7911
:104A10001540EA072AD501229A716269931C6361E5
:104A200023689B8C9BB21380238B013B9BB2238317
:104A3000002B15D0637F002B18D02268D3795BB28E
:104A4000002B13DB138C9BB2002BFBD1137E0221B6
:104A50000B4313762268138C9BB2002BFBD105E02D
:104A6000012322681371237F052B16D06B0708D50D
:104A7000042322689371E37E9B0702D5A37E9B07E4
:104A800017D4AB0708D5022322689371E37E5B0736
:104A900002D5A37E5B0710D470BD00232377E37E8D
:104AA000DB07E3D5A37EDB07E0D52000A3689847AA
:104AB000DCE72000E3689847E3E723692000984794
:104AC000EAE7C046241E0020931C9B0019500123D6
:104AD00093401A00837E13438376704710B5038B8F
:104AE0009BB20524002B01D0200010BD037F052BB5
:104AF000FAD00523037702834161043B02685371B6
:104B0000437F0024002BEFD00268138C9BB2002B54
:104B1000FBD1137E02210B4313760268138C9BB2E8
:104B2000002BFBD10024DFE7012303700023437037
:104B30008370C37003710F2242718371C37103725A
:104B400070470268136802210B4313607047032308
:104B5000026853710268D3710268136802218B43A3
:104B60001360704770B504000D00D37803712160A5
:104B7000537843711379837113789B029178C9023A
:104B80000B43517809020B43D17889000B4311790B
:104B900049010B4391798903D07940030143107A8D
:104BA0000003014352791204F020000302400A433B
:104BB00013431E002B689B0701D42E6070BD20009C
:104BC000034B98472E602000024B9847F6E7C046FB
:104BD0004F4B0000434B000070B5054CE569802346
:104BE0009B012B43E36101230B60024B984770BD8F
:104BF00000040040654B000070B54379012B05D0DF
:104C0000002B10D0022B0DD1082500E00625002333
:104C100010C99A1C92000668B4466244546001337D
:104C2000AB42F5D370BD0425F1E7FFFF10B50023BB
:104C3000026813720F4B426813400F4A93420AD026
:104C40000379032B0ED00C001034036804C99A6357
:104C50008C42FAD110BD03680A689A6303684A68F7
:104C60009A63F7E78379023B012BECD803680A6863
:104C70009A63EFE7FF00FF000300010000230268D2
:104C80001372104B426813400F4A93420AD00379C3
:104C9000032B0ED00A00103203689B6B08C18A42B6
:104CA000FAD1704703689B6B0B6003689B6B4B608A
:104CB000F7E78379023B012BECD803689B6B0B6011
:104CC000EFE7C046FF00FF000300010010B50C4BEA
:104CD000DC79E4B2E30707D50A4B1B68002B0DD043
:104CE0000121074AD1719847A30707D5054B1B68D7
:104CF000002B03D00221024AD171984710BDC04653
:104D000000340042A40000201723002A01D018001C
:104D100070478B00064A9B58002B03D0834205D076
:104D20001D23F4E7890088500023F0E70023EEE715
:104D30002C1E00201723002901D0180070470022E4
:104D40001F2800D8024A0123834013610023F4E79F
:104D50000024004070B50022104B1A700023104947
:104D60001F25104E0D4C0AE00D4908E02378013351
:104D7000DBB223700F2B10D800211F2BF4D9280091
:104D800018400122824048691042EFD04A619B00DE
:104D90009B59002BEAD09847E8E770BD281E0020F9
:104DA000002400402C1E0020064A137802210B43E9
:104DB0001370012053681942FCD153681842F9D18D
:104DC0007047C04600240040064A137802218B43F6
:104DD0001370012053681942FCD153681842F9D16D
:104DE0007047C0460024004010B5124A5169802324
:104DF0009B000B435361104A137801210B4313703E
:104E00000131012053681942FCD153681842F9D18D
:104E1000094A137810210B431370084B19004031D5
:104E2000002204C38B42FCD10822054B1A60054BBB
:104E3000984710BD00040040002400402C1E0020B4
:104E400000E100E0A94D000000230360436001225F
:104E5000027283720132C27243727047F0B583B03E
:104E600005000C001C4B984701A900234B70CB7028
:104E700023790B70237A8B702078184B9847002188
:104E80001F2D00D8164907222A409200E77AA37AFC
:104E9000002B01D008231F43EB089B00CB18D869D7
:104EA0000F269640B04397403A000243DA61637A96
:104EB000002B0BD18A690123AB40DB431B041B0C85
:104EC00013408B61074B984703B0F0BD8A690123FB
:104ED000AB4013438B61F5E7C94D000091620000C0
:104EE00000240040A94D000030B50400254A108878
:104EF000538843438B420BD280229201224BCB1822
:104F0000934205D9214A1820214BCB1893420ED841
:104F1000204B5D688022D2022A435A602022FF3251
:104F20001A831B7DDB0703D41A4B5D60052030BD5F
:104F3000452C22D8A300184AD3589F46154B1B8BEB
:104F4000DB0503D5134B5D601020F0E789084900AD
:104F5000104BD96103E0890849000E4BD961A520A7
:104F6000000204430B4B1C80190001220B7D1342ED
:104F7000FCD0084B5D600020D9E7064B5D60172030
:104F8000D5E7C046AC00002000C07FFFFF1F000037
:104F90000000C0FF00400041B0640100F8B52F4B95
:104FA0001C885B886343834207D22D4E18252D4B06
:104FB000C318B34206D8012600E00026631E182558
:104FC000184201D02800F8BD013D9442FAD3264B87
:104FD0001B7D123DDB07F5D5244C234B1C801D00A7
:104FE00001242B7D2342FCD02024FF341E4B1C8344
:104FF000002A2CD0012305009D430023541EA44603
:1050000009E0CF187F783F023C432C8002339BB2EB
:1050100002359A4204D9CC5C6345F2DBA4B2F4E7D2
:105020000E4B1B790025002BCCD13F2ACAD8002E6D
:1050300006D10022010004200D4B98470500C1E76E
:10504000002201001C200A4B98470500BAE7034BD9
:105050001B790025002BEAD0B4E7C046AC00002045
:10506000FF1F00000000C0FF0040004144A5FFFFFB
:10507000E94E000010B51B4A138852885A438242F9
:1050800007D2194C182219494118A14207D8012109
:1050900000E000219B00013B1822184201D01000C3
:1050A00010BD134B1B7D133ADB07F8D5104B2022A4
:1050B000FF321A8380084000D86100290FD10D4AC1
:1050C0000B4B1A80190001220B7D1342FCD0084BB8
:1050D0001A8B1C200240501E82419200DFE7064AD4
:1050E000EEE7C046AC000020FF1F00000000C0FF3C
:1050F0000040004102A500001AA5000000B583B0E1
:1051000001AB80221A700A785A704A789A708A78AD
:10511000DA701900014B984703B000BD916200009E
:1051200003681869431E9841C0B2704770B5040007
:1051300006680422084B1A60084D2000A847002882
:10514000FBD13388022213433380044D2000A8474B
:105150000028FBD170BDC04600E100E021510000F5
:1051600070B504000668042180230A4AD1500A4D14
:105170002000A8470028FBD1084B3381B381338836
:10518000022293433380044D2000A8470028FBD11E
:1051900070BDC04600E100E021510000FF81FFFF2B
:1051A00070B5040006680A4B98470023A386E3867F
:1051B000084D2000A8470028FBD133880122134363
:1051C0003380044D2000A8470028FBD170BDC046A5
:1051D000615100002151000070B504000668084DBF
:1051E0002000A8470028FBD12379002B04D0002001
:1051F000012B00D1B06970BD308B80B2FBE7C04697
:1052000021510000F0B583B004000191150006683B
:10521000134F2000B8470028FBD12379002B0ED074
:10522000012B19D11730012D17D80835AD00019B7E
:10523000AB510B4D2000A8470028FBD10DE01720F3
:10524000022D0AD8074B019A9A4206D86B469B88D2
:1052500010356D00AB53ECE71A2003B0F0BDC0462B
:1052600021510000FFFF000070B50400150001602F
:105270001F4A516980235B000B43536100221D4B81
:105280001A611D4B9847AB7823711C4B1C60226838
:105290002B79DB0329880B439BB21380AB78002B5F
:1052A00013D01720012B0FD113889BB21380EB78FA
:1052B000002B03D0138880210B431380A9680022A0
:1052C00020000F4B9847002070BD138804210B432A
:1052D0001380EB781720002BF6D10022A96820005C
:1052E000074EB047E96801222000B0470020EBE7F5
:1052F0000004004000100040A15100006C1E00207E
:1053000005520000F8B504000E0003791520002BAB
:1053100000D0F8BD2768064D2000A8470028FBD123
:10532000BE83034D2000A8470028FBD1F1E7C0460B
:10533000215100000A2A09D0072A07D90379002B36
:1053400010D0012B12D11633092A09D8931C9B00C7
:105350001950838E012191400B439BB28386002319
:105360001800704717230A2AFAD8EFE71723F7E740
:1053700010B502680A2911D0072912D980235B00D1
:105380000C00083CA340C024A40023405381C38EDA
:1053900001228A4013439BB2C38610BD044B538144
:1053A000F5E701248C40FF2323405381EFE7C046FB
:1053B0000080FFFF10B502680A2910D0072911D913
:1053C00080235B000C00083CA340C024A4002340C1
:1053D0001381C38E01228A409343C38610BD044BC0
:1053E0001381F6E701248C40FF2323401381F0E76B
:1053F0000080FFFFF8B5DE4657464E464546E0B50D
:105400002B4B1B689A461E68DB8E5246928E1A40C2
:105410009046B289738913401AB2002A08DBFF272D
:105420001F402AD0002401239946FE339B4614E0F6
:1054300043465B0507D41F4BB3813CBC904699465D
:10544000A246AB46F8BD53461B6B9847F3E75B4655
:105450001D40B5810134082CEFD023004D46A540F6
:105460002F42F4D04246224149461142EFD0023346
:105470009B0052469B589847E9E7DA050AD5434610
:10548000DB0503D480235B00B381D6E753469B6AD8
:105490009847F7E79B05D0D543469B0503D4802367
:1054A0009B00B381C9E75346DB6A9847F7E7C046DC
:1054B0006C1E00200080FFFF10B549084023002427
:1054C000814202D2180010BD1C00091A631C9BB255
:1054D0008842F9D94023FF2CF4D814800023F1E747
:1054E00010B582B004000E4B1B78002B07D00029AA
:1054F00005D10B4B5B78834210D01D200CE001A935
:105500000C701120074B98471120074B9847044B0C
:105510005C7001221A70002002B010BD0020FBE771
:10552000B400002095610000256100003C4B9842CA
:1055300032D00AD93B4B98424ED03B4B984255D083
:105540003A4B984238D0002070478423DB059842BC
:105550000CD0374B9842F6D1012917D0002957D0EB
:10556000022915D0032915D00020EDE7012907D025
:1055700000294BD0022905D0032905D00020E3E7FC
:105580002C48E1E72C48DFE72C48DDE72C48DBE737
:105590002C48D9E72C48D7E7012907D0002939D072
:1055A000022905D0032905D00020CDE72748CBE705
:1055B0002748C9E72748C7E7012907D000292BD08A
:1055C000022905D0032905D00020BDE72248BBE70A
:1055D0002248B9E72248B7E7022903D0032903D0BC
:1055E0000020B1E71F48AFE71F48ADE7012907D00A
:1055F000002913D0022905D0032905D00020A3E7F4
:105600001A48A1E71A489FE71A489DE71A489BE7FE
:10561000032099E7194897E7194895E7194893E750
:10562000000800420010004200040043000C004249
:105630000004004203000500030006000300070009
:105640000300010003001E0003001F000300090007
:1056500003000A0003000B00030011000300120006
:105660000300130003000E0003000F0003001700E7
:1056700003001800030019000300040003000800E1
:10568000030010000300160030B587B00B4B6A46CC
:1056900032CB32C232CB32C2009B83420BD00123C9
:1056A0009A0069465258824206D00133062BF7D140
:1056B000002007B030BD0023D8B2FAE7C86501006A
:1056C00010B5024B1B680020984710BDB8000020A1
:1056D00010B5024B5B680120984710BDB800002050
:1056E00010B5024B9B680220984710BDB8000020FF
:1056F00010B5024BDB680320984710BDB8000020AE
:1057000010B5024B1B690420984710BDB80000205B
:1057100010B5024B5B690520984710BDB80000200A
:10572000F0B5D6464F464646C0B58AB006000F00D3
:10573000140031600B689B070AD40B680520DB0757
:1057400000D4AFE00AB01CBC90469946A246F0BD1A
:10575000936A0593D36A0693136B0793536B08936D
:1057600000250AE03800B64B98470EE00F2318409A
:10577000814530D10135042D31D0E9B2AB0002AA08
:105780000C201218D0580028ECD0431CF2D0010491
:105790000B0C9946000CC3B29C460023020605D4AC
:1057A00063465B09DB01A74A904643441F226046DB
:1057B0000240981840300078824680205146C90740
:1057C000D6D552089B1830331878C0B26346DB0731
:1057D000CCD50009CCE7002333601C20B2E71120B0
:1057E000994B984722780025012A16D02178002964
:1057F00027D13B68E27F1204A07F02431C209A421B
:10580000A0D1A369A28B0430205C002801D04020E5
:105810000243082003431D4314E004AA0100A069C9
:105820008A4B984703001720002B00D08AE73B7B68
:10583000DBB204AA127805309A4200D082E70C3518
:10584000D4E700226368A0680343E06803432B4366
:10585000207C0243607C002801D080200343A07C90
:10586000002802D0802080020243E07C002802D081
:10587000802080000243207D002802D0802080010B
:105880000243386802252B43834203D00023336050
:105890001C2057E77B689342F8D17171237CB37168
:1058A00000204FE708006A4B9847052800D1BFE069
:1058B000030012336749CD69012282402A43CA613D
:1058C00009A92425625D0A70DBB201931800624BBE
:1058D00098470198614B9847605D0021604B98475D
:1058E0002378012B20D02378002B03D13B6808229A
:1058F00013433B603368984604AB80221A70002241
:105900005A7001219970DA702378002B01D104AB11
:105910009A70A36A0593E36A0693236B0793636BFC
:105920000893002705AD11E03B680C2213433B6050
:10593000D9E74046424B98470DE004A90870000C97
:10594000C0B2484B98470137042F07D0F9B2BB00CB
:1059500058590028EDD0431CEFD1F4E72378737138
:10596000237CB371A37CF371237D3372002202ABDD
:10597000DA802378012B14D02378002B29D1A06959
:10598000A28B43465B6AE17F0904A57F2943194343
:10599000434659622023E35C002B1CD040231A436A
:1059A00019E030682A4B98471230C0B2264B98470E
:1059B000010002AB9A1DA069244B984703001720F1
:1059C000002B00D0BEE602AB06331B7842461373B1
:1059D000D2E7002200206368A1680B43E1680B4313
:1059E0000343217C0A43617C002903D11E49897845
:1059F000890701D580210B43A17C002902D0802199
:105A000089020A43E17C002902D0802189000A43EF
:105A1000217D002902D0802189010A43414609687D
:105A20000B4341460B604B681A434A60002089E6ED
:105A3000084A136A02210B431362182340E7C04649
:105A40002D55000000280040B9610000B954000045
:105A500089560000000400409561000025610000A7
:105A6000E1540000916200000020004110B544792B
:105A70001523012C01D0180010BD047A0023002C3E
:105A8000F9D1002A58D04B78002B44D003681B7EF4
:105A9000DB0710D40A78D1090023002904D1530967
:105AA000DB012E498C4663441F21114001228A40AC
:105AB0009A610523DFE70A78D4090023002C04D17A
:105AC0005309DB01254CA44663441F2414400122E2
:105AD000A2405A6103681A7ED20701D58A789A6279
:105AE000C2790023002AC6D102680421137E0B422A
:105AF000FCD0117E00234907BDD5538B5B0701D530
:105B0000042353838379012B02D0936A0023B2E7E5
:105B1000936A0023AFE70A78D1090023002904D152
:105B20005309DB010D498C4663441F2111400122BA
:105B30008A405A6100239EE70A78D1090023002990
:105B400004D15309DB0105498C4663441F211140F0
:105B500001228A409A6100238DE7C0460028004058
:105B600010B5082803D880001C4B1B589F46002006
:105B700032E01B4B18692FE01A4B187D0007800F8D
:105B8000431C1948584327E0154B586924E0144B2F
:105B90001B6800209B071FD5124980225200CB684A
:105BA0001342FCD00E4B1B685B0701D40F4813E077
:105BB00000200F4B98470A4B9B681B041B0C584353
:105BC0000AE02823074AD35C00209B0704D5044B36
:105BD000D86801E08020000210BDC046E0650100E9
:105BE000D0000020000C004000093D00006CDC02E9
:105BF000B961000070B50B4C237D8578467802783A
:105C00000321114089000C2293430B430B3A32408D
:105C1000920140218B431343ED017F2213402B431C
:105C2000237570BD000C0040F0B5D6464F46464681
:105C3000C0B5204B9A465B69457801784C424C418F
:105C4000A14681788C46C1788846467A077A847A5C
:105C50004068194948610121484680000422934365
:105C6000034340460840C000043293430343604668
:105C7000084000010832934303430F40BF01402016
:105C800083433B430E40F60140308343334379382E
:105C900005402D02094803402B43214009030848D1
:105CA00003400B43524653611CBC90469946A246A2
:105CB000F0BDC04600100040D0000020FFF8FFFFFC
:105CC000FFEFFFFF082803D88000294B1B589F4691
:105CD00017204BE0274A137D02210B431375002048
:105CE00044E0254A936902210B43936100203DE083
:105CF000204A138A02210B431382002036E01E4AF9
:105D0000536902210B43536100202FE01B490B68AC
:105D1000022213430B60174B1A831900FE32CB6823
:105D20001342FCD0154A9168124B19625268DA612D
:105D300000221A8319000132FF32CB681342FCD0D3
:105D40000E4B1B689BB20B4A138300200EE00949DF
:105D500028228B5C022003438B5408003821263A0A
:105D6000435C1342FCD1002000E000207047C04695
:105D700004660100000C004000100040D00000202C
:105D8000082832D880001A4B1B589F46194A137DA9
:105D900002218B43137500207047174A9369022133
:105DA0008B4393610020F7E7124A138A02218B4349
:105DB00013820020F0E7104A536902218B4353619C
:105DC0000020E9E70D4B1A6802218A431A601B681C
:105DD0009BB2084A13830020DEE7064928228B5C29
:105DE000022083438B540020D6E71720D4E7C04617
:105DF00028660100000C004000100040D000002088
:105E0000F0B5D6464F464646C0B588B0802252000F
:105E1000564B9A60FD3A564B9A60564A53681E217B
:105E20008B431A390B4353608023DB059B78022B8D
:105E30000FD08023DB059B785BB2002B09DB80232E
:105E4000DB0501229A7101329A701A009379002BB6
:105E5000FCD005A8002303708022120242608370E8
:105E60000122C27003728372033242704372424B4A
:105E700098470520414B984741490122CB681A4277
:105E8000FCD03F4A536980210B43536102A901258D
:105E90004D6000244C700C724C7203230B70002078
:105EA000384B98470620384B984701A84470057036
:105EB0008470364B98470620304B98472B49102268
:105EC000CB681A42FCD002AC0126666000256570E2
:105ED00006239A4623702572657221000020294B03
:105EE000984698472A4B9847666065706572052307
:105EF0002370267221000120C0470120254B9946BE
:105F00009847254FBE717E713E716660657053463D
:105F100023702572657221000020C0470020C84709
:105F200000201E4B98473979C9B21D4B98471D4B2D
:105F3000984214D88023DB059B78002B0FD0802358
:105F4000DB059B785BB2002B09DB8023DB0501229C
:105F50009A7100229A701A009379002BFCD008B035
:105F60001CBC90469946A246F0BDC046000C0040BD
:105F70000014004000400041295C0000C55C0000A6
:105F800000100040CD5F0000815D0000F55B000067
:105F9000A95F00007960000000040040B9600000C3
:105FA000811D0100001BB700064A536940210B43C5
:105FB00053610122044B1A7019000B781342FCD173
:105FC0007047C046000400400018004070B504004F
:105FD0000D784B78002B02D08023DB001D434B7AD9
:105FE000002B02D080231B011D43486801280FD9D4
:105FF000431E184231D102282DD90223002201323A
:106000005B009842FBD880235B011D4312041543BB
:106010000B7A002B02D080239B011D430426A6404F
:106020001149124A4B6813401E42FBD1104B98474E
:10603000A4000D4B9C466444226A80235B001A40F6
:106040002A4322626146094A4B6813401E42FBD133
:10605000084B984770BD0022D5E7000480239B00C1
:1060600018430543D4E7C04600180040FC07000071
:10607000F94400003945000010B5040004228240B4
:1060800009480A4943680B401A42FBD1084B98471C
:10609000A400054B9C466444226A80235B001343A2
:1060A0002362044B984710BD00180040FC07000015
:1060B000F944000039450000F8B50400042282408C
:1060C0001248134943680B401A42FBD1114B9847C1
:1060D0000E4F0834A400E0590007000F0E4B9847FC
:1060E0000600E559ED04ED0FE459240C0B4B9847DD
:1060F000002D07D1012C07D921003000084B98470B
:10610000060001E00134E6403000F8BD0018004010
:10611000FC070000F9440000615B00003945000005
:10612000811D010010B50400094B9847A000094BE0
:106130009C4660448022835840210B438350403169
:10614000403A43581A42FCD0034B984710BDC04612
:10615000F9440000001800403945000010B5040063
:10616000094B9847A000094B9C4660448022835805
:1061700040218B4383504031403A43581A42FCD16E
:10618000034B984710BDC046F9440000001800407A
:106190003945000070B504000D00054B98472A787A
:1061A0000F2313402034A400024AA35070BDC04600
:1061B0005D6100000018004010B50400064B9847D0
:1061C0002034A400054BE4582407240F044B9847BF
:1061D0002000044B984710BDF9440000001800400F
:1061E00039450000B960000030B5D378002B35D1B7
:1061F0001378802B29D01B06802464022343547813
:106200000225AC4306D19478002C20D18024A4022E
:10621000234341605478013C012C1CD90D042D0C02
:10622000A024E4052C431C4384620D0CD0242406D6
:106230002C431C438462D478002C22D15B031CD5F0
:106240009378012B1ED0416117E00023D7E7C024CB
:10625000E4022343DDE70D4C2340DFE741600C04FB
:10626000240CA023DB05234383620C0CD0231B06E4
:1062700023438362D378002B03D15378013B012B56
:1062800002D930BD8161F8E78160FAE7FFFFFBFFCB
:1062900010B50A00C1090023002904D14309DB011C
:1062A00005498C4663441F24204001218140180089
:1062B000024B984710BDC04600280040E96100002D
:1062C0007047FFFF10B5054B9847054B9847054BA6
:1062D0009847054B9847054B984710BD015E000055
:1062E00069450000C1620000E94D0000C162000084
:1062F000931C9B001950022A09D0032A0CD00123B9
:1063000093401A00037E1343037600207047037EF8
:10631000102213430376F8E7037E2022134303760B
:10632000F3E7FFFF70B58000164BC45823689D7AD1
:10633000227E637E13401D40EB0706D4AB070BD4CF
:10634000EB0610D4AB0615D470BD2000A3689847A7
:10635000012322689372F1E72000E3689847022343
:1063600022689372ECE72000236998471023226883
:106370009372E7E7200063699847236820229A72A6
:10638000E2E7C046701E002010B50020014B984780
:1063900010BDC0462563000010B50120014B984791
:1063A00010BDC0462563000010B50220014B984780
:1063B00010BDC0462563000030B587B001A90C4B65
:1063C0000A0032CB32C212CB12C2019B98420BD0D0
:1063D000012301A99A005258824206D00133052BAD
:1063E000F8D1002007B030BD0023D8B2FAE7C0468C
:1063F00074660100F0B5C64600B58EB004000D000D
:1064000016000800AE4B984780460CAB1B221A7052
:106410005A7001329A70DA7001321A7102A9A94BCE
:1064200014330A0083CB83C283CB83C283CB83C262
:106430001B6813600023A360E3602361636123761C
:10644000637643469A00A04BD45025603423F35C16
:10645000A376F378082B08D023712B680520DB077F
:1064600008D50EB004BC9046F0BD17204246D207B6
:10647000F7D4F1E7EB7A17309B07F2D42B689B0730
:10648000EFD4337C002B12D1337F002B1BD143463A
:106490005A0002A9531C9B0058584346DB005B5826
:1064A000D9B2042923D88B008849CB589F4601A92B
:1064B00001238B700022CA70327E0A704B70307DCF
:1064C000834B9847E0E701A901238B700022CA7033
:1064D0002432B21812780A704B701F33F3181878F0
:1064E0007B4B9847D3E77B494B6918434861F37866
:1064F000082B00D186E033786A4613700CAB424615
:106500009F5C69463800744B98473800734B984736
:10651000F378F2791343B2881343727A002A02D0D7
:10652000802252021343B27A002A02D080229202C1
:106530001343F27A002A02D0802252031343327BA3
:10654000002A02D080229203134371788901B27825
:10655000D2011143194322681369002BFCD1296031
:1065600022681369002BFCD1B3792B73717B4B1E0E
:1065700099418900B37B002B01D001231943226884
:106580001369002BFCD1FF332B71002904D0226842
:106590001369002BFCD16971337A6B73226813691C
:1065A000002BFCD12379042B59D0082B74D0172051
:1065B000002B00D055E71369002BFCD1338DAB8243
:1065C00022681369002BFCD1738DAB832268136999
:1065D000002BFCD1B38DEB83002042E73D498B6952
:1065E0001843886183E73B49CB691843C8617EE75C
:1065F00038490B6A1843086279E7364B596A0843F1
:10660000586274E743460133042B00DD73E702ABA5
:10661000D11C8900C95802329200D358DAB2042A38
:1066200000D968E793002E4AD3589F46294A5369F8
:10663000194351615FE7274A9369194391615AE70A
:10664000244AD3691943D16155E7224A136A194391
:10665000116250E71F4B5A6A114359624BE71369A5
:10666000002BFCD12833F35C2B7522681369002BB7
:10667000FCD12933F35CEB7622681369002BFCD143
:106680002A33F35C2B7722681369002BFCD12B3360
:10669000F35C6B770020E4E61369002BFCD1B36A4E
:1066A0006B6122681369002BFCD1F36AEB612268ED
:1066B0001369002BFCD1336B2B620020D1E6C0465E
:1066C000B963000074660100701E00204C66010072
:1066D0009162000000040040956100002561000007
:1066E0006066010002681369002BFCD11371016818
:1066F0000B69002BFCD18033537153795BB2002BB3
:10670000FBDB02681369002BFCD10379042B05D055
:10671000082B09D00020002B03D07047107DC0B299
:10672000FBE7908A80B2F8E75069F6E710B5046895
:106730002369002BFCD10379042B06D0082B28D029
:10674000002B13D01723180010BD17230129FAD8E6
:10675000837E002B05D0D2B2611830310A7000233D
:10676000F1E7D2B2641822770023ECE7172301295E
:10677000E9D8837E002B05D092B2183149000A5324
:106780000023E0E792B20C3149006418A280002394
:10679000D9E717230129D6D8837E002B05D10631EE
:1067A0008900641862600023CDE70C3189000A512A
:1067B0000023C8E7FEE7FFFF10B51A4A1A4B9A42BA
:1067C00011D01A00194B9A420DD2194A03339B1A61
:1067D0009B0801339B000022134812498C588450B7
:1067E00004329A42FAD1134A134B9A420AD2D34343
:1067F00011495B1803218B4304339B18002102C20B
:106800009342FCD10D4AFF210D4B8B4393600D4AFF
:1068100053687F390B4353600B4B98470B4B98479A
:10682000FEE7C046E86F0100000000208000002065
:106830000400002080000020403E002000ED00E029
:1068400000000000004000417D4F01006D7000001D
:10685000F0B5C64600B50C00904600280FD1002ABE
:1068600011DD8F18094E0A4D306821002B689847BA
:106870000134BC42F8D1404604BC9046F0BD01232F
:106880005B429846F7E78046F5E7C0468C1E00203D
:10689000841E0020F0B5C64600B50E001500013874
:1068A000022810D8002A11D000240C4B98460C4F17
:1068B00043461868315D3B689847002808DB01347F
:1068C000A542F5D106E00124644203E0140001E092
:1068D00001246442200004BC9046F0BD8C1E0020C0
:1068E000881E00200300064A1268002A04D0044AC9
:1068F0001068C318136070470249014A1160F6E737
:10690000E8000020405E00200120404270478023C4
:106910009B014B60002070470120704700207047AA
:1069200000BEFEE7704701204042704730B5531E5D
:10693000DBB2002A0BD00024C5182A78520022436B
:10694000CA542C78E409013BDBB2FF2BF4D130BDF3
:1069500010B584B00400110010226846044B98471B
:1069600069462000034B9847002004B010BDC04684
:10697000E34F0100C1B7000010B5014B984710BDAF
:106980005169000000207047F0B5D6464F46464694
:10699000C0B5A4B001900F00029103929A462CABAF
:1069A0001C8808AE102200213000644DA8478723C0
:1069B000F3731022002104A8A847019A390004A803
:1069C0005F4B984704AB1B787F2B2DD8102220A952
:1069D00004A85C4B984720AB1B787F2B34D810223F
:1069E0001CA920A8574B984723000F331D11AAB2AA
:1069F0009046002A38D0220738D14246013A120187
:106A000096B2514F1F40BE4254DA330010A920AA5B
:106A1000981B80B25446E45C155C6C400C54013306
:106A20009BB2BB42F4DB45E0102220A904A8454BF1
:106A30009847002320AA08A9985C5D5C6840985498
:106A40000133102BF8D1C6E710221CA920A83D4B1A
:106A5000984700231CAA08A9985C5D5C684098547C
:106A60000133102BF8D1BFE7012398460F232000F4
:106A7000984300230F2214400CA90027802650447D
:106A800005E0944209D05F540133102B07D09AB22D
:106A90009442F6D9C25C5A54F6E75E54F4E70023F8
:106AA00010A80CA91CAA5C5C9D5C6C401C540133B2
:106AB000102BF8D11022002118A8204B9847012351
:106AC0005B424344994600200027002B1ADD14AD99
:106AD00018AC1E4E000100235044C25C195D4A40B0
:106AE0005A550133102BF8D1102229002000B0474D
:106AF000019A02992000124B98470137BFB2380023
:106B00004F45E7DB002314AC18A810A91A5C5D5CA4
:106B10006A401A550133102BF8D1019A029914A832
:106B2000074B9847102214A90398084B9847002058
:106B300024B01CBC90469946A246F0BDF54F01001A
:106B4000516900002D690000F0FF0F00E34F0100C4
:106B50000122014B1A707047EC0000200D4A136AA5
:106B60005B04DB0F116A1A00090401D502221A43E3
:106B7000084B1B6A1000DB0301D504201043054BB2
:106B80001B6A9B0302D408239843704708231843C9
:106B9000FBE7C0460028004010B50F4C20000F4B0B
:106BA0009847002262700423A370E270237263721C
:106BB0002E3363750A4BDA690A491140E022D2028A
:106BC0000A43DA61DA6980210A43DA61DA69403915
:106BD0008A43DA6110BDC046A01E0020D9450000DE
:106BE00000140040FFFFF0FF10B50F4A0623137199
:106BF0000E4C0F4920000F4B98472268138C9BB214
:106C0000002BFBD18021C9030B4B196007231371A3
:106C10009371137802210B431370044B1A68138C81
:106C20009BB2002BFBD110BDA01E0020CC1E00206B
:106C3000000C00431D46000000E100E010B50F4AC3
:106C4000042313710E4C0F4920000F4B9847226804
:106C5000138C9BB2002BFBD18021C9030B4B196015
:106C6000072313719371137802210B431370044BA4
:106C70001A68138C9BB2002BFBD110BDA01E002004
:106C8000CC1E0020000C00431D46000000E100E087
:106C900010B50F4A052313710E4C0F4920000F4BFE
:106CA00098472268138C9BB2002BFBD18021C9032B
:106CB0000B4B1960072313719371137802210B4357
:106CC0001370044B1A68138C9BB2002BFBD110BDC0
:106CD000A01E0020CC1E0020000C00431D4600001A
:106CE00000E100E010B50F4A102313710E4C0F495C
:106CF00020000F4B98472268138C9BB2002BFBD1CE
:106D00008021C9030B4B196007231371937113780A
:106D100002210B431370044B1A68138C9BB2002B97
:106D2000FBD110BDA01E0020CC1E0020000C004393
:106D30001D46000000E100E010B5054C00220549A9
:106D40002000054B9847E37E01221343E37610BDF4
:106D5000CC1E0020516B0000C94A000010B5544BF6
:106D60009847544B98470122534902315348544B9A
:106D70009847544A1378002BFCD00022514B1A70CC
:106D80004E4B1A688020C00380234F49C850138C93
:106D90009BB2002BFBD1073313719371137802213F
:106DA0008B431370454B1A68138C9BB2002BFBD19D
:106DB000464B98473F4B984701223F4904313F4893
:106DC0003F4B98473F4A1378002BFCD000223D4BA5
:106DD0001A703A4B1A688020C00380233A49C85081
:106DE000138C9BB2002BFBD1073313719371137873
:106DF00002218B431370314B1A68138C9BB2002B0A
:106E0000FBD1334B98472B4B984701222A49063137
:106E10002A482B4B98472B4A1378002BFCD0002292
:106E2000284B1A70254B1A688020C00380232649FE
:106E3000C850138C9BB2002BFBD107331371937195
:106E4000137802218B4313701C4B1A68138C9BB26E
:106E5000002BFBD11F4B9847164B98470122164930
:106E600008311648164B9847164A1378002BFCD069
:106E70000022144B1A70114B1A688020C003802323
:106E80001149C850138C9BB2002BFBD107331371EF
:106E90009371137802218B431370084B1A68138C7B
:106EA0009BB2002BFBD10C4B9847034B188010BDB5
:106EB000E96B0000396D0000F0000020CC1E0020BE
:106EC000DD4A0000EC00002000E100E03D6C000025
:106ED000916C0000E56C00005D6B0000F0B5C646EB
:106EE00000B58846182A0FD905000C000E00193687
:106EF000074F2A8807492000B84702350534B442B5
:106F0000F7D100234246137604BC9046F0BDC0463C
:106F1000A5560100B066010010B5092A00D810BDC1
:106F2000084B1A780A705A784A709A788A70DB7817
:106F3000CB702C230B710C3B4B7106311A22024B88
:106F40009847ECE7901E0020DD6E000010B50400AD
:106F50006420054B9847054B98472422210004489C
:106F6000044B984710BDC046BD6F00005D6D00002A
:106F7000F0000020196F000070477047704770479D
:106F8000704770477047FFFF30B583B001AC0023F6
:106F90002370A3700233637021000E20064DA847B2
:106FA00021000F20A84721001020A8472100112010
:106FB000A84703B030BDC046FD50000010B5002802
:106FC00003D10120024B984710BD024B9847FBE7C5
:106FD000A1440000CD440000002804D18022120307
:106FE000034B5A61704780221203014B9A61F9E703
:106FF0000028004010B5024B9847002010BDC04645
:1070000051750000F0B583B06B466946114A124CC9
:10701000108808701088000A487002320231A242BB
:10702000F6D10E4A082040426844D9791170013BDC
:1070300001328342F9D10A4D00240A4E0A4F6B46B1
:10704000E25C31002800B84701340235082CF6D143
:1070500003B0F0BD44A080004CA0800014000020CC
:10706000901E0020B8660100A556010070B5114BB6
:107070009847114B98470122104B1A70BFF35F8F4E
:1070800062B60F4B98470F4B98470F4B98470F4BE3
:107090009847802212030E4B9A6100200D4B9847AF
:1070A0000D4B98470D4B98470D4D0E4CA847A047E8
:1070B000FCE7C046C56200006144000008000020F3
:1070C000057000003DBB0000796F0000896F000073
:1070D00000280040B5730000996B000075C10000E6
:1070E00085C100005175000010B50022044B1A70D4
:1070F0000520044B9847044B1878044B984710BD63
:10710000040100200992000005010020F1BE0000EA
:1071100010B514000022064B1A700020054B98474A
:10712000054B1878054B98472000054B984710BD34
:1071300004010020D96F000005010020F1BE00000D
:10714000D5AA000010B50C4B1A8843889A4205D086
:107150008278C17809480A4B984710BD094B1878C6
:10716000094B19780131C9B21970084B9847802230
:107170001203074BDA61F0E7882F0020C066010098
:107180009D55010001010020000100207F6F0000DB
:1071900000280040F0B5C64600B586B080460E0017
:1071A00015001C000122524216236B441A80102045
:1071B0000F2C05D923073AD0200901300001C0B2B5
:1071C000364B9847071E5ED00022354B1A70002CB4
:1071D00031D00021002332485A1CD2B2695CF954E4
:1071E00001780131C9B2017013008C42F4D8012139
:1071F0002C4B19704346002B1FD12B490B78581C80
:107200000870B10089194900284E89192848029050
:107210000020019000933B000830264CA047002836
:107220001CD10120244B9847244B984723E00F237F
:1072300020009843C4E72200D9E71B490B78581C6B
:1072400008701B4902910021019100933B00163107
:1072500069440220174CA047002818D0184A137818
:1072600001331370174B187800230093164B00223C
:107270001649174CA047174B1978114B1878164B25
:107280009847164B984706B004BC9046F0BD0120C5
:10729000094B9847124B9847EDE7C04619AA0000E2
:1072A000101F00200401002003010020A825002059
:1072B00011710000B59F000009920000836F00006B
:1072C0000101002005010020E9700000404B4C0046
:1072D000D9BB0000000100207F6F00007D6F00001F
:1072E000856F000030B583B0234B984700281ED02F
:1072F000224B1B785B071AD4204B1B781B0716D434
:107300001F4B1B78002B12D11E4B1B78DB0710D5AF
:1073100001201D4CA0471F231C4A002101201C4DA9
:10732000A8470020A047174A13780133137003B011
:1073300030BD0024134B1C700020164B984701A948
:1073400001234B708C700B700D20134B98478022DB
:107350009201124B5A61124B1B78002B06D0012070
:107360000C4B984709480F4B9847D1E70E4B1868CC
:107370000E4B9847F3E7C046459E0000803300203F
:107380000401002002010020D96F0000F01E00203F
:1073900095710000E9A70000FD50000000280040A2
:1073A000090000204D6F0000FC00002021C70000F4
:1073B0007047FFFFF0B587B005004F484F4B984727
:1073C0004F4B9847002D32D0002100204D4B98475D
:1073D0004D4B98474D4B984700220023049205934C
:1073E0004B4E0832310004A84A4DA8470400012240
:1073F0005242D317049205930932310004A8A847DA
:1074000000280AD0002C08D04148434B98474348F5
:10741000434B9847012007B0F0BD3D4C260008368D
:10742000404DA84720700134B442FAD1ECE7012066
:107430003D4B984700210020324B984714203B4B8E
:107440009847314B9847314B9847002200230492CC
:1074500005932F4F0832390004A82E4EB047040080
:1074600001225242D317049205930932390004A82D
:10747000B04700282AD0002C28D02548264B984712
:1074800000202B4B98472B4C207800212A4B984703
:1074900021000020294B9847002821D00E226A4461
:1074A00001235B421380234B1878254B0093002364
:1074B0000021244CA047FF2817D01E4B187801212B
:1074C0001D4B98470020184B9847A0E7104C270009
:1074D0000837144EB04720700134BC42FAD1CCE7D3
:1074E000144B1878184B9847D8E7FA208000174BB0
:1074F000984728008FE7C0464571000041A2000070
:10750000E1C600005DA00000F99D0000D15501001A
:1075100014000020C54F01001D9E00000501002041
:10752000A5BB00002D560100D96F0000899C00000A
:1075300021A200000D0000207B6F000039A0000098
:10754000B173000089A80000816F0000CD440000E5
:1075500010B5024B9847024B984710BDB5A30000E9
:10756000E5720000F0B5C64600B584B014001F00F7
:10757000294BCB1840031D18002F1AD0274B5A1E39
:1075800095421CD87A1993421FD3C91980239B01B5
:10759000994220D8224B98463E1C102F00D9102625
:1075A000B6B2320029006846C047002E28D000231A
:1075B0001FE01C4B1C4AD9211C481D4CA0471D4BE9
:1075C000194ADA2119481A4CA0471B4B164ADB21ED
:1075D0001648174CA047194B134ADC211348144C8A
:1075E000A047FF21914212D10133DBB29AB29642F9
:1075F00006D96A46D25C002CF3D021780134F1E739
:10760000BF1BBFB2AD19002FC6D1012000E0002082
:1076100004B004BC9046F0BD00040000004400002B
:10762000E34F0100F46601000068010004670100F7
:10763000214F01004867010064670100986701005D
:1076400070B515004403134808182418124A501E38
:1076500084420DD8E018824210D3C91880229201CA
:10766000914211D81A00210028000C4B984770BD98
:107670000B4B0C4A72210C480C4CA0470C4B094A8E
:1076800073210948094CA0470A4B064A7421064851
:10769000064CA0470004000000440000E34F010036
:1076A00048670100C867010004670100214F01001D
:1076B0006467010098670100F0B5DE4657464E4604
:1076C0004546E0B593B001929A46464C0C194003EA
:1076D0002518002B47D0444B5A1E954249D8524694
:1076E000521993424BD3D346514480239B01994274
:1076F0004BD83E4B1B68002B00D098473F272F40AC
:10770000EC1B4026F61B5E4500DD5646B3B29B4699
:107710004022FF2102A8364B98473B0002AA94461C
:10772000634400933604370C3A0001991800314B3A
:107730009847314B9847314E402202A92000B0476C
:107740000528F9D02E4B984753465A469E1AB6B292
:10775000EC19019B9946B944002E3BD0244B9B4623
:10776000244B984631E0274B274A8A212748284C4A
:10777000A047284B244A8B212448254CA047264B60
:10778000214A8C212148224CA047244B1E4A8D219E
:107790001E481F4CA0479FB24022FF2102A8D84795
:1077A0003A0049460098C047134B9847134D402272
:1077B00002A92000A8470528F9D0114B9847F61BCD
:1077C000B6B2E419B944002E04D0331C402EE2D9DD
:1077D0004023E0E713B03CBC90469946A246AB4636
:1077E000F0BDC04600040000004400000801002075
:1077F000F54F0100E34F0100F94400009D4F0000E8
:1078000039450000F4660100D867010004670100F3
:10781000214F01004867010064670100986701007B
:1078200070B544030C482418FF239C430B4B013BC9
:1078300080229201A6189C4207D8094D2000A84733
:107840000134FF34B442F9D170BD064B064AC2215F
:107850000648074CA047C046000400000044000052
:107860007550000048670100E867010004670100E7
:10787000214F010010B513000022014CA04710BD9C
:107880006575000010B5014CA04710BD657500007E
:1078900010B5054B1B68002B04D0984701235840B6
:1078A000C0B210BD0020FCE774020020012909D0FD
:1078B000002902D002290DD070470A4B1A8880187F
:1078C0001880F9E7074A13880F33C0180F2398432D
:1078D0001080F1E7034A13883F33C0183F239843D1
:1078E0001080E9E77A02002030B5002919D0FF2482
:1078F00013E02300150A6B401D096B4012025A4029
:107900001D036A405B015A4092B203005D1EAB4109
:10791000C018013989B2002903D00028E9D00378C2
:10792000E8E7100030BDFFFFF0B5DE46574680B5F2
:1079300089B0019002919346109A002A0DD0924688
:107940009A445B449DB25E46029C0120AB453ED00A
:10795000224F002C08D1002039E000229246F0E7A7
:1079600004AB5C89002C31D0102304AA21000198BB
:10797000B84704AB9A88AA42F2D2DB88D3189BB2EC
:10798000B342EDD9AB4201D21E00E9E7A91A89B290
:10799000B24215D904AB5B8903930B00ED1AADB26B
:1079A0005246002A08D010340919D21A9246C91A30
:1079B00089B20198094CA047AE420DD0039CC8E79C
:1079C000AB1B9BB25E46029A0392E7E7002009B028
:1079D0000CBC92469B46F0BD0120F8E741760000C2
:1079E000F0B5DE46474680B587B00490059195799D
:1079F000D3791B021D43177953791B021F432C0AAD
:107A000064B2002C2FDB1C4B03931C4B984611E0F7
:107A1000002D2AD01A4B00932B003A0005990498A8
:107A2000184EB047002820D0290015E0013C64B270
:107A3000631C1AD0002CEBD0013DFF3DADB2104BC2
:107A4000009380235B003A00059904980D4EB047DF
:107A50000028EBD0802149007F18BFB2039A084864
:107A6000C0470390E2E7044B0393039807B00CBCB4
:107A700090469B46F0BDC046FFFF0000E97800003D
:107A80003C0100202979000070B5164B1C78002CB1
:107A900026D0154B1B88834216D00123124EDAB232
:107AA00094421BD91D00591C9A00B25A824201D03F
:107AB0000B00F4E79B000C48C018AD000A4B5D19A1
:107AC0006B88002B03D070BD07480025F5E7074BF6
:107AD000074A8C21FF310748074CA0470020F2E7F6
:107AE0000020F0E7700200205402002060680100CE
:107AF0004C6901007C680100214F010010B5054B65
:107B00009847002804D08378C0780002184310BD3D
:107B10000020FCE7897A000010B504000E4B98475E
:107B200000280BD10D4B1B78062B0ED8591C0B4A85
:107B300011700B489B001C52C01810BD094B0A4A1B
:107B4000CC21490009480A4CA0470A4B064A9A2111
:107B5000FF310648064CA047897A000070020020D9
:107B600054020020246801005C6901007C68010067
:107B7000214F01004068010010B5084C2078084BE7
:107B800098472078802292010021064B98470028D0
:107B900003D080225200044B1A8010BD78020020CE
:107BA00021780000757800007A020020F0B583B0DB
:107BB00001900D001600074F387813000A00019954
:107BC000054CA047387833002A000199034CA047A0
:107BD00003B0F0BD78020020B9760000857800007F
:107BE00010B586B001AC4123A3701333E370013BA1
:107BF0002371053B63712833A371443BE371039008
:107C0000C0430490084B1B882382084A10216B460E
:107C1000981D074B98472080122221000020054B19
:107C2000984706B010BDC04672020020FFFF00005A
:107C3000E9780000AD7B0000F8B504000D00214A92
:107C40001388CB189BB21380FF2B2ED91E4B1A889A
:107C5000801880256D00AA1A1C491D4B98471D4BA2
:107C600018882A0021001C4B9847051E27D00021A8
:107C700080204000194B9847134B188800221A8027
:107C8000104B1E88013EFF3EB6B21E80002E16D05D
:107C900080214900091A89B20C4B59183200200082
:107CA0000B4B9847084B1E8009E0074E3788C019D8
:107CB0000A000649064B9847ED1935800125280032
:107CC000F8BDC046380100200C0100203C01002016
:107CD000E34F01007A020020AD7B0000AD78000088
:107CE000F0B5DE4657464E464546E0B5D5B07B4832
:107CF0007B4B984700237B4A13807B4A13807B4A47
:107D000013807B4A13807B4B1B781F000393122345
:107D10000FAA00213800784CA047119B0993754C9D
:107D20002500260008E03370724B1B78BB420BD055
:107D3000724B984700280DD123780133DBB2012B19
:107D4000F1D900232B70EFE76D4B6E4A6E496F48F7
:107D50006F4CA0476F4B1B78002B6AD00023069313
:107D60000133FF3399466A46D3826B4B1033089335
:107D7000069B07939F00694B9C4667447B881D00C8
:107D8000049310230BAA2900039880465A4CA0475D
:107D90000BAE0023B3803489F4807381B381103437
:107DA000A4B23200290040465D4B984730805D4ABE
:107DB0000E210BA85C4B9847F081574D4A46FF2196
:107DC00028005A4B98472B0007CE07C332681A6029
:107DD000574B1B88454A12889B187B804C4504D919
:107DE000002610234C4A904668E00BAB1B89089A8A
:107DF00000920022049903984E4EB047002863D0A9
:107E0000079B9D00454B5D19494B1B88374A1288DB
:107E10009B186B80210014A8474B9847002853D02B
:107E2000069B0133DBB21A0006933A4B1B78934250
:107E30009ED82F4B1A88002A06D03D4B188814A9CB
:107E40003E4B9847041E40D0294B188800213C4BDC
:107E50009847374B1A883B4B1A80099801383A4BA0
:107E60009847041E31D002210020354B9847374BEC
:107E70006A46127B1A70364D2800194B9847280025
:107E8000344B984721E0ADB2EF1ABAB2934643445F
:107E900000931300320004990398264FB847002836
:107EA00012D0290014A8244B984700280CD0641B3A
:107EB000A4B25E44B6B20023002CB1D0251C4C45C0
:107EC000E1D96A46D58ADEE70024200055B03CBCE3
:107ED00090469946A246AB46F0BDC046240100201C
:107EE000CDAB000050020020520200200C01002007
:107EF000380100207802002041760000797B0000E4
:107F00001C6801006C690100D50300007C68010059
:107F1000214F0100700200203C010020540200208B
:107F2000E1790000FFFF0000E9780000F54F010053
:107F30007A02002029790000397C0000AD7B000026
:107F4000AD78000072020020E17B00000E000020EE
:107F50003C02002039AC000010B5074B98470028C0
:107F600000D010BD054B9847054B064A2C21FF3128
:107F70000548064CA047C04691780000E17C00000F
:107F80001C680100346901007C680100214F010078
:107F900010B5124B1A8880239B019B1A9BB2834217
:107FA00003D30F4A93420AD910BD0E4B98470028BD
:107FB000FAD10D4B0D4A0E490E480F4CA0470F4801
:107FC0000F4B98470028EFD10C4B0E4A1A610E4A0E
:107FD0005A609A6000221A73E6E7C0467A020020CF
:107FE0000F080000E17C00001C6801007C690100B2
:107FF0004E0400007C680100214F01002401002094
:108000000DAC0000597F000010270000F0B5DE46DF
:1080100057464E464546E0B58BB0774B984705230B
:10802000002807D018000BB03CBC90469946A246E9
:10803000AB46F0BD714B1888002846D1704B1B88A9
:10804000002B00D1D0E06E4B18886E4B98478346CA
:10805000002800D1CAE08278C3781B0213431900BC
:108060000393694B1878102306AA684CA047634B0A
:108070001A88002A2ED0664B1B88059306AB1B89F5
:1080800006A90A81191C934200D9111C8BB206AAB9
:10809000002191801089D080518191811C00103481
:1080A000A4B25C4961CA61C112680A6080225200B0
:1080B000944239D900261023802252009146694605
:1080C0004A82514A92461A0088E0103080B2524BE0
:1080D0009847B8E706AB1889103080B24E4B9847E6
:1080E000474B1888474B98478346002815D082781D
:1080F000C3781B0213431900039306AC424B187854
:1081000010232200414DA847414B1B88059323892A
:108110003A4A1288002ABAD0B2E7404B404A91212D
:10812000C9004048404CA047374A1078394A1032BD
:108130000092002203993D4CA0470123002800D162
:1081400070E7344906AB0A00180070C870C20068B6
:108150001060DA88103292B22D4B1888344B984751
:108160000023002800D15DE706ABD888103080B22C
:108170000221304B98470023214A13801F4A138065
:108180005B46059999700B0A5A46D370002349E75C
:10819000ADB2AF1ABBB21900534618781D4B9B18ED
:1081A000009302910B0032000399204FB84700283A
:1081B0001ED0174B18882A0016491D4B98470028D7
:1081C00018D0022128001B4B9847641BA4B20299C7
:1081D0008C466644B6B20022002CCCD0251C4C45FF
:1081E000D6D96B465D8AD3E700231BE7002319E746
:1081F000012317E7002315E79178000052020020C1
:1082000050020020897A00007802002041760000A8
:108210007A0200203C010020917F00000C680100E0
:10822000946901007C680100214F01002979000058
:10823000AD7B0000AD78000010B5014B984710BD34
:108240000D800000F0B5DE4657464E464546E0B587
:1082500083B004008A46464D80225200FF21280048
:10826000444B9847444EA379E179090219433200FF
:108270005046424FB8472070000A607032000E210D
:108280002000B847A073000AE073102221002800E4
:108290003B4B9847A379E27912021A431500103537
:1082A000ADB25346002B12D080235B009D4209D90A
:1082B0000026102780235B009B466A46D3802C4B08
:1082C000994645E051462A4810302D4B9847A379EE
:1082D000E27912021A43103280235B009A4200DDD9
:1082E0001A0092B2274B18882149274B984780469D
:1082F000002833D0A379E07900021843103080B20F
:108300000221224B9847404603B03CBC9046994618
:10831000A246AB46F0BDA4B24B46D819E21B534669
:108320009919174B9847174B188822004946164B46
:10833000984780460028E6D002212000134B98473A
:108340002D1BADB2E41B3619B6B20027002DDAD0D2
:108350002C1C5D45DFD96B46DC88DCE7A379E0792E
:1083600000021843103080B20221084B9847CAE738
:108370003C010020F54F0100FFFF0000E9780000FC
:10838000E34F01007A020020AD7B0000AD780000D1
:10839000F0B5CE46474680B587B004000191150080
:1083A0001F0000280CD0002B0AD0354B984705231E
:1083B00000280BD0180007B00CBC90469946F0BDC1
:1083C000304B314A31493248324CA04728001030F6
:1083D00080B2314B98472000304B9847060003236A
:1083E0000028E7D08378C47824021C43A0462C4B95
:1083F0001878102302AA21002A4CA04702AB198941
:10840000019B5A1904238A42D4D802AB6A46928847
:108410009A80DD8042465A818D422CD002AB9B89E6
:10842000013302AA9381204B1C88390002A81F4BFC
:10843000984701230028BDD0B470240AF47002AB21
:108440009A890023642AB5D902AB5A88184B1A803E
:108450000022184B1A801848184B98470023002810
:10846000A8D1154B164A1A61164A5A609A60002222
:108470001A7300239EE7002302AA9381D3E7C04624
:108480009178000014690100B469010096050000AC
:108490007C680100214F0100917F0000897A000073
:1084A00078020020417600007A0200204582000018
:1084B0005002002052020020100100200DAC0000EC
:1084C00039820000B80B0000F0B583B00C00150035
:1084D0001E00002809D0002B07D0104B984703231B
:1084E000002808D1180003B0F0BD0D4B0D4A0E490D
:1084F0000E480F4CA04762190E4901338A42F1D849
:108500000D4B1F7800962B002200010038000B4C09
:10851000A047434243419B00E4E7C046FD7A000088
:1085200014690100C4690100EE0500007C680100C7
:10853000214F0100FFFF0000780200202979000090
:1085400010B584B0002805D00A4B9847011E07D10A
:1085500004B010BD084B094A09490A480A4CA04713
:108560000A4B187810236A46094CA0476B461889B5
:10857000EEE7C046FD7A000008690100D4690100F9
:108580000B0600007C680100214F010078020020EA
:1085900041760000F0B585B004000E001500431EC2
:1085A0009BB22E4A93421ED880231B0199421AD8AF
:1085B0002B4B984700281DD020002A4B9847864215
:1085C00007D0294B1C80294B1E80294B9847031E3E
:1085D00015D1002D40D02B00320000212000254C69
:1085E000A04703000BE0244B244AAA21C9002448D9
:1085F000244CA047244B98470523002802D018009C
:1086000005B0F0BD3000103080B2204B9847204BB1
:108610001B78062B19D81F4B1F886B465C800023E4
:108620006A469380D68016815381938129006846DB
:10863000194B984701230028E1D02000174B984799
:1086400087703F0AC7700223D9E7154B0B4AAF2149
:10865000C9000B480B4CA0470023D0E7FEEF0000F9
:10866000FD7A0000418500005002002052020020E7
:108670000D800000C9840000C8680100A0690100E5
:108680007C680100214F010091780000917F00007B
:10869000700200207A02002045820000197B000051
:1086A0004068010010B5034B9847431E9841C0B283
:1086B00010BDC046FD7A0000F0B5D646474680B5ED
:1086C00087B00F00204B984212D0430415D4C30842
:1086D000CF1807231840063B83403A7813433B707A
:1086E00001230193019807B00CBC90469A46F0BD57
:1086F000FE230B70FD3B0193F4E704A9134B98474D
:1087000001900028EED004AB9B889846002BE9D05E
:10871000002402AB9D1D0E4B9A4607266100049B68
:108720009C46614402222800D0472988CA08BA180A
:10873000314001238B4011780B4313700134E4B2B4
:10874000A3B24345EAD3CDE70240000065890000AB
:10875000E34F010010B50549054B9847041E01D1B0
:10876000200010BD0020034B9847F9E7800200204D
:10877000B9860000B5880000F0B585B03E4B1B7887
:108780000133072213403D4A177838001E003A0093
:10879000DA40D20731D40133DBB2072207250124A6
:1087A0002B401E000100D9400C4226D10133DBB220
:1087B000013AD2B2002AF3D10124E400E4182000E7
:1087C0002F4B9847002824D1694620002D4B98470D
:1087D000002838D0029B002B00D09847019A6B46A6
:1087E00059882000284B9847FD2318422BD0274B4F
:1087F000274AEA212748284CA0470122B240974344
:108800001E4A17700021254A11701B4A137000245C
:10881000D3E7694620001B4B9847002813D06B46CE
:108820005B88002B15D0019B002B12D0029B002BE4
:1088300000D09847019B6A46528800212000184CBE
:10884000A04700280CD10D4B1B78002B0FD105B091
:10885000F0BD144B144A3421FF310E480E4CA04792
:10886000124B114A4221FF310A480B4CA04700200D
:108870000F4B9847EBE7C0468102002080020020A2
:10888000A58600000989000095850000786A01002E
:10889000C06A0100286A0100214F01007C0200200B
:1088A00091830000EC690100D86A0100E86A0100C8
:1088B000B5880000034A0123834011780B431370ED
:1088C0007047C0468202002070B50D4B1D78002D08
:1088D00012D02800EB0710D4002301240133DBB2AF
:1088E00019000200DA401442F8D001238B405D40A9
:1088F000034B1D70034B984770BD0021F5E7C04640
:108900008202002079870000F0B587B0019102AAA9
:10891000104B110070CB70C11B680B601388834231
:1089200011D00D4B02AA11001C00E0CCE0C124685C
:108930000C601188814206D0103308498B42F2D175
:10894000002007B0F0BD102202A90198044B9847FF
:108950000120F6E7004400001044000070440000CD
:10896000E34F010070B582B00C006B46084A6946BF
:1089700060CA60C1DA880023824202D0180002B0C7
:1089800070BD082269462000024B98470123F5E795
:1089900000440000E34F010010B50278084B1A7044
:1089A00042785A700A78074C22704A7862701888A8
:1089B000054B98472088054B9847012010BDC046BD
:1089C000182000208C200020759C0000619C000075
:1089D000F0B5C64600B5C6B006000C009C464C99E2
:1089E0002509230700D001354920404B187000238A
:1089F00002A803700D334370827000223B4B8F5CE2
:108A0000D0184770100002AFB84640448F5CC77161
:108A10000132082AF3D163466A46D371D3793348C9
:108A200043724246D37063461B041B0E837213715C
:108A300063461B021B0EC372537163461B0E037306
:108A400093710023D373042242738373C473284940
:108A5000284B9847002306A902AA9A5C5A5401336E
:108A6000102BF9D127001037102F0ADD102006A98E
:108A7000F218103A12780A5401339BB21800BB4224
:108A8000F6DB230010331A00013529018B4207DA87
:108A900006AC0020A05401339BB21A008B42F9DBD4
:108AA00000220027002D15DD104E1201002306A91B
:108AB0008C189919E25C087842400A700133102B37
:108AC000F7D10B4909480B4B98470137BFB23A0021
:108AD000AF42EADB002308480449CA5CC2540133B0
:108AE000102BFAD146B004BC9046F0BD28200020DF
:108AF000046B0100119E00006C200020F0B5DE46E2
:108B000057464E464546E0B58DB080460E001400EF
:108B10001A0009780D090B0700D00135374B5B6847
:108B2000009323004046364FB84731788BB22E0071
:108B30002D01A94207DA00214246D15401339BB2EC
:108B4000AB42FADB9046012204AB1A702B4B5868FB
:108B5000002304AAD218C15C51700133082BF8D14C
:108B600004AB5C72220A9A72220CDA72240E1C7315
:108B700004225A7300229A73DA73731C99460023F5
:108B80009B4603934B46002B2FDD08AC04AD1D4BD9
:108B90009A461D4E17E01A5DCF5C7A40CA540133E5
:108BA000102B07D00028F6D11A5D6746FF5C7A408B
:108BB000F254F4E70130E873039F0137BBB203932B
:108BC0009B464B4511DA00235A5D1A550133102B91
:108BD000FAD10E492000D047E87B594601390901F6
:108BE000002341440A4A9446DCE701200DB03CBC16
:108BF00090469946A246AB46F0BDC04620200020D4
:108C0000D1890000119E000054200020046B010057
:108C10006C2000200E4B1A780E4B1B7800209A42D5
:108C200000D070470A4B5A780A4B5B789A42F8D1C9
:108C3000074B9A78074B9B789A42F2D1044BD8782D
:108C4000044BDB78C01A43425841C0B2E9E7C04642
:108C5000542000207C200020F0B5DE4657464E46CA
:108C60004546E0B591B081460691049205931AAB52
:108C70001B78079309780A090B0700D001328BB2E1
:108C800010001201914207DA00214C46E1540133F1
:108C90009BB29342FADBA146012208AB1A70002373
:108CA000049C08AAD218E15C51700133082BF8D15A
:108CB00008AB059959720A0A9A720A0CDA720A0EFE
:108CC0001A7304225A7300229A73DA73431C9A4669
:108CD0000025002398465346002B2EDD0CAC08AE31
:108CE000264B9B46264F43460393A84614E01A5D45
:108CF000E95C4A40EA540133102B04D00028F6D135
:108D00001A5DFA54F7E70130F073039D0135ABB2F9
:108D100003939846534510DA00239A5D1A550133A0
:108D2000102BFAD117492000D847F07B4246013A70
:108D3000120100234A441500E0E7069B1978043924
:108D4000C9B21970049B0093059B079A48460E4CC4
:108D5000A04700230D4D0A4C0D48E25CC15C4A401F
:108D6000EA540133102BF8D10A4B984711B03CBCA0
:108D700090469946A246AB46F0BDC046119E000003
:108D800044200020046B0100D18900005420002001
:108D90006C200020158C000010B5002803D0FF289F
:108DA00005D0002002E0044B9847012010BD034B82
:108DB00098470120FAE7C046D19C00000D9D0000B5
:108DC00010B5002809D10B78192B07D8044A137065
:108DD0001800044B9847012000E0002010BDC04659
:108DE0008E2000205D9D000030B583B06C46009061
:108DF0000191104B9847104D2B0006CC06C30F4B2A
:108E00009847040001200E4B98470E4B1C70686871
:108E10000D4B98470D4B00221A700221FF315A5416
:108E20000B495A540B495A5401320B4B1A6001201A
:108E300003B030BD219C000020200020F99D0000DF
:108E4000559C0000151F00201D9E00009821002049
:108E5000020200000303000068200020F0B5DE4697
:108E600057464E464546E0B587B003AF041C039015
:108E70000800049115002D0A0592009311AB1B7890
:108E80009A46E4B2A606F60F0290D3B29C46EDB223
:108E90000022C44B1A70C44B07CF07C3630701D528
:108EA00001239C46082323401A00534253415B424E
:108EB0001D4003232340012B4DD001229146002B5E
:108EC00004D09A1E514251414A00914603AA528948
:108ED000B6480088904241D0002293460732E046CF
:108EE000170008376146002900D0971C002D44D098
:108EF0000237FAB2019224221440202C41D0032BD5
:108F000044D003AA71011378202083430B431370CC
:108F100003221340012B41D003AB72011C782021A6
:108F20008C4314431C70E4B2230739D410AB1B7874
:108F3000019AD7189E4B1F709D4B4A465A70E343C7
:108F40009B0740D04346002B5FD0002D45D08822A0
:108F5000974B9A7044E003229146B7E795488242C6
:108F600007D040224946114389463F3A934604328E
:108F7000B5E7002293460732B1E70837FAB201920B
:108F8000B9E7043A494611438946B8E70125002666
:108F900000239B46994607330193B2E70026BBE7BF
:108FA00008234A461A439146834B1A684B4610A938
:108FB0000098824FB84710AB1B780933019AD71835
:108FC0007B4B1F70B8E77A4B80229A707C490A78F5
:108FD000501C0870DA7004223EE0C822744B9A706C
:108FE000774B1A78511C1970714BDA7003AA917A79
:108FF0001971D27A5A71630729D402990A786C4B95
:109000009A714A78DA71082226E0002D0FD0684B59
:109010008C229A706A490A78501C0870DA7003AA88
:10902000917A1971D27A5A71630710D499E0604B22
:10903000CC229A7062490A78501C0870DA7003AA30
:10904000917A1971D27A5A71630700D485E0584B2E
:10905000FF229A71DA71F73A03A970010B78202484
:10906000A34303430B709B0600D485E0544B1B784D
:10907000013B54490B700121534B19705B46002B87
:1090800009D1531CDBB24A49484804788C54023257
:10909000D2B24078C854002D00D171E044494B4809
:1090A00003788B54931CDBB20132D2B240788854DF
:1090B00003AA71011678202086430E4316703207EA
:1090C00015D5190000223A4E3B4D481CAC5C745437
:1090D0000132C1B2042AF8D11A1DD2B23648016851
:1090E000013101600533DBB200203149885410AAF8
:1090F0001678002E53D0009AF118C9B22C4D581C86
:109100001478EC540132C3B28B42F8D12848304B6A
:109110001A7842544A1CD2B25C7884548A1CD2B267
:109120009C7884540331C9B2DB784354294B009AAC
:109130001A60294B129A1A60284B52461A70284B13
:109140001E70284B9847431E9841C0B207B03CBCE4
:1091500090469946A246AB46F0BD4346002B00D050
:109160004BE700231248029CE15C1A18917101330D
:10917000082BF9D10E226FE70021134B19707DE700
:10918000194B596814000834E4B2094D531CDBB282
:109190000878A85401311A009C42F7D188E71900D9
:1091A000B4E7C04686020020382000208C20002032
:1091B000181F0020FFFF000068200020FD8A00002B
:1091C000151F0020141F00208302002018200020FB
:1091D0005420002090020020880200208C020020F1
:1091E00085020020899D000020200020044B1B7870
:1091F000032B04D81A02D3180021024A995470474D
:109200000F000020982100200022044B1A70044B0C
:1092100018700132034B1A707047C0468402002058
:10922000642000208602002010B5044A1378013320
:1092300013700320024B9847002010BD84020020C9
:1092400009920000F0B5D6464F464646C0B588B0F4
:10925000FF22D14B1A70D14B1B78002B00D05EE35C
:109260000223FF33CD4AD35C002B10D1CC4BD35C0F
:10927000002B42D1CB4BD35C00240322002B07D11F
:10928000200008B01CBC90469946A246F0BD0122C1
:10929000C14B1A700024032AF2D810001102891859
:1092A000BE4B5B189D7840242540BF4900240C70BC
:1092B000CC73DB7833218B43D9B2882900D136E1D6
:1092C0001DD9D9B2C8296FD0CC2900D1B9E08C29D9
:1092D00000D1B2E1B54B9847AF4B1A7813029A18F8
:1092E000AE4B9B189B7800249B06C9D507A800238A
:1092F00003704380AE4B9847C2E70222C8E7082BB1
:1093000000D1E9E18029E5D1A74B19780424214354
:1093100080246442214319700121D9739F4C1102AA
:10932000881821184D791D748979597411028A1889
:10933000D11D09195960015D0B39197309321219D0
:109340009A60954B1A7813029A18944B9B189B7845
:109350001B0700D5E1E1904B1878020212188F4BE1
:109360009B18997807230B40012B00D156E2002B64
:1093700000D18BE2022B00D18EE2032B00D17DE2E3
:109380008A4B9847844B1A7813029A18834B9B1880
:109390009B7800249B0600D472E707A80023037083
:1093A0004380834B98476BE7110289187B4B5B180E
:1093B000DC79FF2C1ED07C490E7880235B4233433E
:1093C0000B70002D00D085E27749744C0302181809
:1093D00023185D7A0D749B7A4B7413029A1813004C
:1093E0000B331B194B60035D153B0B7313321219C2
:1093F0008A6043E011028918684B5B181B7AFF2BC7
:10940000D9D169490B78042423438024644223433F
:109410000B70002D00D06CE2D6E7644B98475E4B92
:109420001A7813029A185D4B9B189B7800249B06B0
:1094300000D425E707A80023037043805C4B9847BE
:109440001EE759490C7880235B4223430B70002DA3
:109450003AD15549514C130298182318DD7B0D74ED
:109460001B7C4B7413029A18130011331B194B60A9
:10947000035D1B3B0B73193212198A60464B1A7835
:1094800013029A18454B9B189B781B0700D462E780
:10949000454B9B685A781202197811438A469A788C
:1094A00012044449504601401143DB781B060A026E
:1094B000120A1A439246404E0025002437003A4BC8
:1094C00099463E4B984642E1110289180731334BC9
:1094D000C9183B48394B9847041E15D02E4B1878B5
:1094E000314A2E4903021B18C81844791474807934
:1094F000507418000F3040185060585C19381073C1
:1095000017335B189360B9E7284B9847224B1A78BA
:1095100013029A18214B9B189B789B0600D4AFE648
:1095200007A8002303704380214B9847A8E6110247
:1095300089181A4B5B18DC79FF2C1FD01A4B1E7848
:1095400080214942314319700121D973002D39D14D
:109550001900124C0302181823185D7A0D749B7AB7
:109560004B7413029A1813000B331B194B60035DE5
:109570000F3B0B730D3212198A60E2E61102891853
:10958000064B5B181B7AFF2BD8D107490B780426B2
:1095900033430B70D2E7C0460F0000209821002013
:1095A0000202000003030000702F0020ED91000074
:1095B00029DD0000FFFF00FFA825002011A000000A
:1095C0009021002001020918D74B5B181B7AFF2C51
:1095D00017D1FF2B15D1D549D34C030218182318E6
:1095E0005D790D749B794B7413029A18130009333B
:1095F0001B194B60035D0D3B0B730B3212198A6014
:109600009FE6CB490978A14203D1C94949789942DB
:10961000E1D0C84B9847C84B1A7813029A18C24B2E
:109620009B189B7800249B0600D429E607A80023FA
:1096300003704380C14B984722E6BC4B1C788021C5
:109640004942214319700121D973002D15D1B74921
:10965000B54C1302981823189D7B0D74DB7B4B745B
:1096600013029A18130010331B194B60035D153B4E
:109670000B73133212198A6063E6110289180731DD
:10968000A94BC918AE48AF4B9847041E11D0AA4B3E
:109690001878A64AA44903021B18C8184479147400
:1096A00080795074585C1338107311335B189360D1
:1096B00047E6A04B9847A04B1A7813029A189A4B8A
:1096C0009B189B789B0600D4DAE507A8002303705B
:1096D00043809A4B9847D3E511028918924B5B1847
:1096E000DB79FF2B0CD091498F4C03021818035DD6
:1096F0000A3B0B7313029A18093212198A6020E68A
:1097000011028918884B5B181B7AFF2BEBD1874914
:109710000B78042423430B70E5E7864B9847864B70
:109720001A7813029A18804B9B189B789B0601D4D9
:109730000024A5E507A80023037043807F4B9847CA
:10974000F6E70134E4B201350A36FA2C13D0AB0047
:109750005B195B00FB181B7ADB09F2D04B4659689A
:109760003000C0470028ECD0F92C04D8A300764A7A
:109770009B5853452ED26D490B7B053BDBB20B73D7
:109780008868C3185D78714A15709D785570DD78CA
:1097900095701B79D3704A680C310530664B1D7883
:1097A0002B025D19604B5B199B7800935346684D03
:1097B000A847002820D0F92C03D8A400624B5246B9
:1097C000E2505A4B9A6805329A601A7808210A4387
:1097D0001A70C0E5574B9847574B1A7813029A18DE
:1097E000514B9B189B789B06A2D507A800230370BA
:1097F0004380524B98479BE74E4B98474E4B1A7805
:1098000013029A18484B9B189B789B0690D507A883
:10981000002303704380494B984789E7434A1378F4
:109820000324A3431370414C3F4B02021218D55C32
:109830009B185A5DA2735B78637301248B0600D476
:109840001EE504AA0024547214723E235B42137076
:10985000364B596805911B8A53813E4B05022D18E2
:109860003148401900791870029401940120009049
:109870000498069A384CA047012401E52B4A137836
:109880000324A343012423431370CCE7274A13780E
:10989000032423431370C6E7244A137803218B4320
:1098A00002210B43137093681A782C4B1B789A4251
:1098B00003D0204B98470024E2E4294B1B78002B6F
:1098C000F7D00024274B1C600020274B9847244BDF
:1098D0001C70EEE701020918134B5B181449497814
:1098E0001B7A994200D098E5114B1B78A34200D017
:1098F00093E50E490C4C0302181823185D790D747A
:109900009B794B7413029A18130009331B194B608F
:10991000035D133B0B73113212198A60AEE500220E
:10992000054B1A70B9E4C04698210020702F002022
:10993000A0250020ED9100000F00002029DD00008F
:109940009021002011A00000942F00207C200020F6
:10995000598C0000802000205D8E0000141F002024
:10996000830200209C3300200992000010B50B4BAD
:1099700098470B4B1B68002B03D00A4A1278002A29
:1099800000D110BD0021074A1170074A126807492B
:109990000978074800789847F3E7C046319E0000F1
:1099A000880200208602002090020020642000200F
:1099B0008C02002000B583B02F4B1B78002B07D002
:1099C000192B56D89B002D4AD3589F462C4B0193F8
:1099D00001A901202B4B984703B000BD2A4B0193EE
:1099E000F6E72A4B0193F3E7294B0193F0E7294B64
:1099F0000193EDE7284B0193EAE7284B0193E7E752
:109A0000274B0193E4E7274B0193E1E7264B0193B2
:109A1000DEE7264B0193DBE7254B0193D8E7254B87
:109A20000193D5E7244B0193D2E7244B0193CFE771
:109A3000234B0193CCE7234B0193C9E7224B0193BE
:109A4000C6E7224B0193C3E7214B0193C0E7214BAB
:109A50000193BDE7204B0193BAE7204B0193B7E791
:109A60001F4B0193B4E71F4B0193B1E71E4B0193CA
:109A7000AEE7094B0193ABE794020020146B0100A1
:109A8000801361331DCB0000C055703340DA8E3334
:109A9000F080A633C05EAD33A027BE3308E6D333D3
:109AA0008025DB336001C835C0AFD235C0CA8936E6
:109AB00000D88C36608697360016D636A0D1E336AD
:109AC000E013F336809AF4362021F636C0DC0337F3
:109AD00000EA0637A070083740612237E086483731
:109AE0000028503720C9573700F7CB3C70B582B0FB
:109AF00004000D003E4B18706B46981C0023038039
:109B00003C4B9847102C53D8A4003B4B1B599F4605
:109B10003A4B1A78002A0ED00223FF33374AD35C1F
:109B2000002B4ED0364BD35C002B4CD0354BD35C46
:109B3000FF22002B43D016002C7A13029A182F4BC9
:109B4000D454FA2C0DD80023320292192B488018D5
:109B50006A68D15CC21891700133DBB22A7A9A42EA
:109B6000F6D2264B320292190434D4545621264898
:109B7000415E684641809B1859709B789B0624D5AE
:109B800001A80123037000234380204B98470FE076
:109B90001F4B1B78002B02D02B78002B0AD0287883
:109BA0001C4B984701A8002303704380174B98472C
:109BB00002B070BD184B9847184B1860F2E7FC3A9A
:109BC000B9E70122B7E70222B5E701A80023037035
:109BD00043800E4B9847EBE701AC00232370638072
:109BE00001200C4B98472000084B9847E0E7C046FF
:109BF0008F210020D9C300007C6B01009821002038
:109C00000202000003030000B037002029DD00003D
:109C1000830200200992000059AC00009C33002010
:109C200010B5064B9847064B9847064B9847064990
:109C30001A20064B9847064B984710BDD5AD00003B
:109C40009DB8000019CD0000ED9A00001DCB00006A
:109C500035DB000010B5014B984710BD1DDA000040
:109C600082B0C2B2024B1A70000A587002B070473C
:109C70009C25002082B0C2B2024B1A70000A5870B4
:109C800002B07047A025002000B583B06B46D871A4
:109C90000F2813D86B46991D00230B7008200B4B1F
:109CA00098476B46DA1DD9790F230B4013706B462A
:109CB000D91D0420054B984703B000BD6B46991D84
:109CC00001230B700820014B9847F0E71DCB0000E3
:109CD00010B5094B1B78022B0DD03423074AD15CF9
:109CE00000220020064B9847064B9847064B9847A2
:109CF0000222014B1A7010BD95020020B0370020DF
:109D000015C2000051B100008DAF000010B50C4B22
:109D10001B78022B00D010BD0A4B98470A4B98477E
:109D20000A4B984734230A4AD15C00220120094B90
:109D30009847094B98470122014B1A70EBE7C04640
:109D40009502002035B10000D5AD0000ADAF000098
:109D5000B037002015C200001DDA000010B5064B18
:109D60001870064B1B78022B02D0054B984710BD8C
:109D7000044B9847F9E7C046940200209502002062
:109D8000B59900000D9D000000B585B0037802AACA
:109D90001370002B09D000231249C2185278CA54FC
:109DA0000133DBB202789A42F7D80E4B03930120BD
:109DB0000D4B98470D4B984705236A4613805F3B30
:109DC0005380052313710023537169461D20084BEE
:109DD000984702A8074B984743425841C0B205B084
:109DE00000BDC0469020002025D40000B599000099
